:020000040000FA
:10000000803131287C0808007E1480314E01961E14
:100010000A280B2813288C1E0E280F2813288C3131
:10002000FC2480312F280B1F162817282F28991CF5
:100030001A281B2826288F1C1E281F282628400126
:1000400039088A0038080A0080312F28191C29280D
:100050002A282F280F1C2D282E282F281F287E10F5
:10006000090080313328FB01FC01FD0120308400B0
:100070000030850030308C3114248031A030840071
:10008000003085002C308C31142480317E104001EA
:1000900080314A288D3156258031400112101814C4
:1000A00012111811921492129812921398138B171E
:1000B0000B178E31F52680318B31CA238031863182
:1000C000F92680314001CE010030E5000030E40027
:1000D0000030E3000030E200FA298B138C316524F4
:1000E00080318C315B248031003A031978287928DB
:1000F000832808304001E0006008D800C4308E3109
:10010000252680318C2808304001E0006008DA00A4
:10011000FF308E31B62680318B174001CE01181486
:100120001A2A8B138C31652480318331A9238031C5
:10013000003A03199C289D28A72808304001E000B8
:100140006008D800C4308E3125268031B0280830B0
:100150004001E0006008DA00FF308E31B6268031C1
:100160008B174001CE0118141A2A8B138C31652489
:1001700080318D31D2258031003A0319C028C12841
:10018000C62801308D3141258031CA2800308D319B
:10019000412580318B174001CE0118141A2A8B1388
:1001A0008C31652480318D31D2258031553040012C
:1001B000E0006008D5008C31652480318F31D6276E
:1001C00080314001EC016C08203E86008701010867
:1001D000E0006008D5008C31652480318F31D6274E
:1001E000803101304001E0006008EC0708306C020B
:1001F000031CFB28FC28E328E901112969088D313B
:100200000B2580314001E0006008D5008C31652469
:1002100080318F31D627803101304001E000600805
:10022000E90780310220803140016902031C19294D
:100230001A29FE288C31372480318B174001CE01DA
:1002400018141A2A8B138C31652480318D31D225F4
:10025000803155304001E0006008D5008C316524C4
:1002600080318F31D62780314001ED016D08203E6D
:10027000860087010108E0006008D5008C31652404
:1002800080318F31D627803101304001E000600895
:10029000ED0708306D02031C4E294F293629EA016B
:1002A00064296A088D310B2580314001E000600827
:1002B000D5008C31652480318F31D62780310130D3
:1002C0004001E0006008EA078031022080314001EF
:1002D0006A02031C6C296D2951298C313724803125
:1002E0008C31652480318F3187278031003A0319A2
:1002F0007A297B2970298B174001CE0118141A2AFC
:100300008B138C313F248031003A031988298929C5
:10031000D829863132268031003A03199029912953
:10032000C52940014F08843164248031003A031903
:100330009A299B29B2294001EB01AB296B08A03E09
:100340008600870101088D3141258031013040014F
:10035000E0006008EB074F086B02031CB029B129CD
:100360009E29EF294001E601BE29FF308D3141254C
:10037000803101304001E0006008E6074F08660266
:10038000031CC329C429B529EF294001E701D1295C
:10039000FF308D314125803101304001E00060089F
:1003A000E7074F086702031CD629D729C829EF2978
:1003B0004001E801E9298C31652480318F31AE2775
:1003C00080318D314125803101304001E0006008ED
:1003D000E8074F086802031CEE29EF29DB298C315E
:1003E000282480318B174001CE0118141A2ACE011F
:1003F00018141A2A40014E08E000E1016108003A91
:100400000319032AF7296008003A03191A2A013A46
:1004100003196D28033A03199128013A0319B528E5
:10042000073A03198029013A0319CF28033A03191F
:100430002229F7296400FA29803131288B31B6232B
:100440008231F5007508FB00972B54308D312D2536
:10045000823142308D312D25823154308D312D2520
:10046000823162308D312D25823100308D312D2544
:10047000823101308D312D2582310130F500750832
:100480004001CC00CD014001C901CB014E2B7B08BE
:1004900001398C31E0248231432A8C312F2482317E
:1004A000003A0319542A552A562A4E2B7B18592AEA
:1004B0005A2A642A40014E08031D5F2A602A432AF3
:1004C0001810CE01CE0A432A40014E08031D692AA6
:1004D0006A2A432A18100230F5007508CE00432A14
:1004E0008C312F248231003A0319772A782A792A0D
:1004F0004E2BF0307B05F500D0307506031D812AA8
:10050000822A882A0130F50075084001CA008A2A2B
:100510004001CA017B080F39013EF5007508CB0088
:10052000FC01CC01CD01C8010130F5007508C900FE
:100530004E2B4E08031D9D2A9E2AAD2A1810FC0141
:10054000CC01CD01CB010430F5007508CE007B084D
:100550000F39013EF5007508CF00C9014E2B8C31D3
:100560002F248231003A0319B62AB72AB82A4E2B13
:1005700040014E08031DBD2ABE2A432A181003302D
:10058000F5007508CE00432A18107B1CC82AC92A1A
:10059000CE2A01308F3116278231D22A00308F3196
:1005A00016278231400118144E2B18107B1CD92AB3
:1005B000DA2ADC2A1815DD2A181118144E2B181007
:1005C000FF2A03308D311B2582317108F800700835
:1005D000F700132B08308D311B2582317108F8008C
:1005E0007008F700132B0C0C0139F500F6017508A3
:1005F000F7007608F800132BF701F801132B7B089E
:100600000339F500F6017608003A0319082BFC2A95
:100610007508003A0319E12A013A0319EA2A033A54
:100620000319F32AFC2A78088D312D2582317708A9
:100630008D312D2582310130F50075084001CC0047
:10064000CD01C901CB0118144E2B7B08F039F50000
:10065000F6017608003A03192E2B4E2B7508103A36
:100660000319DF2A303A0319D52A103A0319C42A8C
:10067000B03A0319472A103A0319AF2A303A03193E
:100680004D2A103A0319992A703A0319702A103A20
:100690000319702A203A0319252A4E2B4001C7015D
:1006A000A82B4903031D552B562B702B08304802ED
:1006B00003185B2B5C2B6E2B7B08F5004808203E53
:1006C00086008701750881000130F5007508C807AC
:1006D00008304806031D6D2B6E2B962BC901A82BE5
:1006E0004B080319742B752BA82B7B088D312D25F6
:1006F000823101304001CB024B08031D802B812B3E
:10070000A82B4E08031D852B862BA82B4A080319FE
:100710008A2B8B2B902B0630F5007508CE00942B7E
:100720000530F5007508CE001810A82BA82B400145
:100730004708F500F6017608003A0319A02BA82B0C
:100740007508003A0319512B013A0319252BA82BE0
:1007500008004001DB00BA013F080319B02BB12BA0
:10076000B32B0030632C5B088D31D2258331003AE6
:10077000031DBB2BBC2BBD2BB12B4001BB01BB030D
:10078000C0018C31C6248331F0304001DA005A08B0
:10079000D5005B088F31D627833140015B088D314E
:1007A0009D2583318C31C624833140015B088E3115
:1007B0005D2683314001DA005A08C2005B088E31A1
:1007C0005D2683314001DA005A08C100420803194E
:1007D000EA2BEB2BF52B41080319EF2BF02BF52B14
:1007E0005B088E317A268331B12B4208031DF92B29
:1007F000FA2B262C4108031DFE2BFF2B262C40082C
:100800003D06031D042C052C082CBE01BE0A2A2C13
:100810003D08803ADA004008803ADA020318112CC9
:10082000122C142CBE011C2C40088F316027833100
:100830004001DA005A08BE003E08031D202C212C7E
:100840002A2C4008DA005A08BB002A2C4208DA0099
:100850005A08BE003E08031D2E2C2F2C3B2CD00125
:1008600040088731A22783314001D3015B088F31D3
:100870003A278331482CD001D00A40088731A2277B
:1008800083314001D301D30A5B088F313A2783318A
:1008900001304001DA005A08C0074008803A403E63
:1008A000031C532C542CD52B3B08DA005A08BD00EE
:1008B000BD1F5B2C5C2C5E2CBF01BF0A5B088E3118
:1008C0007A268331013008004001D90011305902E5
:1008D000031C6B2C6C2C702C0F30D4005408D900E6
:1008E0005908031D742C752C772CD901D90ADA010B
:1008F000DB018D2C40015B08D5005A08D400DA0AD0
:100900000319DB0A00305502653003195402031C39
:100910008A2C8B2C8D2C0030112D8C316524843148
:10092000003A031D942C962C0130972C00308F3107
:1009300087278431003A031D9E2C9F2C7A2C40017E
:10094000D6010A2DD801D701DA01DB01B92C40010B
:100950005B08D5005A08D400DA0A0319DB0A003014
:100960005502653003195402031CB72CB82CB92C5E
:100970008B2C8C31652484318F3187278431003A68
:100980000319C32CC42CA72C4001DA01DB01DA2C9B
:1009900040015B08D5005A08D400DA0A0319DB0AC3
:1009A00000305502653003195402031CD82CD92C91
:1009B000DA2C8B2C8C31652484318F31872784315C
:1009C000003A031DE42CE52CC82C40015835D40016
:1009D0005408D80000305B02053003195A02031C8A
:1009E000F22CF32CF42C58140130D4005408D707FF
:1009F00008305702031CFD2CFE2CA42C5808D400F0
:100A00005608A03E86008701540881000130D400BA
:100A10005408D60759085602031C0F2D102DA22C7E
:100A2000013008004001D8005808D4005408D9000B
:100A300052085304031D1D2D1E2D1F2DB62D5008C9
:100A4000D400590886008701540881005008D4005A
:100A500052085907D5005508FF3E86008701540803
:100A60008100003053020330031952020318392D5C
:100A70003A2D3B2DB62D5008D400590A8600870127
:100A8000540881005008D4005908023E86008701AE
:100A9000540881005008D40052085907D500550861
:100AA000FE3E86008701540881005008D400520899
:100AB0005907D5005508FD3E86008701540881007E
:100AC000003053020730031952020318682D692DB4
:100AD0006A2DB62D5008D4005908033E86008701C0
:100AE000540881005008D40052085907D500550811
:100AF000FC3E860087015408810000305302093013
:100B0000031952020318852D862D872DB62D5909FC
:100B1000D4005A09D500D40A0319D50A0330540564
:100B2000D60000305505D7005608D4005408D90720
:100B30005608D2025708D33BFC30D205FF30D3050C
:100B4000B02D5008D4005908860087015408810050
:100B50000130D2020030D33B0130D4005408D90711
:100B600052085304031DB52DB62DA12D08008B315D
:100B7000B92385318C311A248531003A0319C12DEE
:100B8000C22DD92D8B31CE238531003A0319C92DC1
:100B9000CA2DD02D0130F90079084001C5001B2E67
:100BA0008B31BC2385310230F90079084001C50042
:100BB0001B2E8B31CE238531003A0319E02DE12D18
:100BC000E72D0330F90079084001C5001B2E8B3159
:100BD000BC2385310430F90079084001C5001B2E83
:100BE0008C31922485318C3121248531003A0319CE
:100BF000FA2DFB2D312E8C31AC2485318B31BC2369
:100C00008531312E8C3192248531312E8C31212445
:100C10008531003A03190D2E0E2E312EFB2D8B310E
:100C2000C2238531003A0319162E172E312E8C312E
:100C30009F248531312E4508F900FA017A08003ADF
:100C40000319232E312E7908013A0319F02D033AA6
:100C50000319022E013A0319062E073A03190F2E23
:100C6000312E08008C31652486318D319D258631E9
:100C70008C31652486318E31D52686314001D801EC
:100C8000D9018C31D3248631640001304001D8076A
:100C90000030D93D013059023A3003195802031C83
:100CA000522E532E412E8C31652486318D31832571
:100CB00086314001D601D701702E40015708D5007A
:100CC0005608D400D60A0319D70A003055026530F9
:100CD00003195402031C6D2E6E2E702E00309D2EB3
:100CE0008C31652486318F3187278631003A031D88
:100CF0007A2E7B2E5D2E4001D601D701912E400128
:100D00005708D5005608D400D60A0319D70A003070
:100D10005502653003195402031C8F2E902E912E1C
:100D20006E2E8C31652486318F3187278631003ACB
:100D300003199B2E9C2E7F2E013008004001D40009
:100D4000D501D60154088F3187278631003A031D1B
:100D5000AA2EAB2EAC2EBA2E01304001D5070030A2
:100D6000D63D00305602133003195502031CB92E2C
:100D7000BA2EA22E400154088F3187278631003ABF
:100D80000319C32EC42EC62E0030F82E4001D50103
:100D9000D60154088F3187278631003A0319D12EA6
:100DA000D22ED32EE12E01304001D5070030D63DA2
:100DB00000305602323003195502031CE02EE12E9A
:100DC000C92E400154088F3187278631003A031D10
:100DD000EA2EEB2EEC2EC42E0030400156020730D6
:100DE000031955020318F52EF62EF72EC42E0130E6
:100DF00008008C318624863180308B31F623863191
:100E0000FE308B31FC238631B7304001D0000530F5
:100E1000D1008B31EA23863100304001D000003010
:100E2000D1008B31E423863170304001D00007308F
:100E3000D1008C31082486311E304001D0000230B0
:100E4000D1008B31F02386317A304001D0000C3054
:100E5000D1008B31DE23863100304001D0000030DC
:100E6000D1008C31022486318B31BF2386318C3105
:100E700037248631080040019C01980199019A01AC
:100E8000083096005A309200FF309300C33094002F
:100E9000C3307E01CE003F30C3005830B800E501BA
:100EA000C401B901CF01E601BA01C5011830D00073
:100EB000FF30BB00FF30C600FF30D1003F30BC0028
:100EC0003F30C7003F30D2000E307D01C5001330E7
:100ED0007E019E0014309F000F307D01C600080087
:100EE0007C080319742F752F8F2F40014C03031DAD
:100EF0007A2F7B2F8F2F7C084D020318802F812F94
:100F00008F2F4D08B43E8600870101088B31D32313
:100F100087310130F10071084001CD07932FFF3078
:100F20008B31D323873140014D087C06031D992F57
:100F30009A2FA12F7C0803199E2F9F2FA12FFC0110
:100F4000CC0108004001D3005308D1000330D13652
:100F5000890BA72F5108D2005208D4000130D100CC
:100F600053080739890AB52FD135890BB42F510899
:100F7000D2005208D50050080319BF2FC02FC92F27
:100F80005508D1005408C43E8600870151088104E9
:100F9000D12F5509D1005408C43E8600870151085D
:100FA000810508004001D5005008D3005308D70040
:100FB0005508D3005308D600F32F57088600870141
:100FC0000108D3005308D4000130D3005308D707D9
:100FD0005408D30056088600870153088100013069
:100FE000D3005308D6070130D1020030D23B510A5A
:100FF000031DFE2F520A031DFE2FFF2FDD2F0800B9
:10176C0043010C0808004E010F100800430110162D
:10177C0008004E011914080043010F080139080034
:10178C00B33052018C0008004001A801A9010800E7
:10179C0043010F0C890C01390800F000700843015B
:1017AC008C00080001304001AC070030AD3D080052
:1017BC0040015108B3005008B20008004001510824
:1017CC00B1005008B000080040015108B9005008A1
:1017DC00B800080040015108B7005008B6000800D6
:1017EC004001D000500843018D0008004001D0009A
:1017FC00500843018E00080040015108AF0050080A
:10180C00AE00080040015108B5005008B4000800B3
:10181C0040015108AB005008AA0008006400800188
:10182C000131890B152C0034031043018F1E031456
:10183C000030093D0800031043010F1C0314003055
:10184C00093D080001304001D0005008CC00CD010A
:10185C0008008C3147248C31283E86008701010812
:10186C000800FC014001CC01CD01CB01CA01C9012A
:10187C0008008C3165248C31283E860087010108D4
:10188C00080002307D0203184C2C4D2C4F2C7D0887
:10189C00502C003008004F019601970198019901D6
:1018AC009A019B019C019D0108004001DC00BF01D5
:1018BC00BD01BD035C088331A9238C3108000230C3
:1018CC007D0203186A2C6B2C6D2C7D086E2C00305D
:1018DC00080043018F0106309000013091009012F6
:1018EC008C3137248C3108008B31B6238C31F000CD
:1018FC0070084001C6000130F0007008C7000800F5
:10190C004301901A8A2C8B2C912C8F01063090005D
:10191C00013091009016080040013208330403197D
:10192C00982C992C9E2C33088A0032080A008C3192
:10193C0008004001360837040319A52CA62CAB2C43
:10194C0037088A0036080A008C3108004001340838
:10195C0035040319B22CB32CB82C35088A00340882
:10196C000A008C3108004001D1010130D000500830
:10197C00D10706305102031CC42CC52CBB2C08000B
:10198C004001D1010130D0005008D107293051025B
:10199C00031CD12CD22CC82C08004001D1010130E1
:1019AC00D0005008D10729305102031CDE2CDF2C4B
:1019BC00D52C0800F100023071020318E62CE72C3C
:1019CC00EC2C7108F0007008FD00ED2CFD010800F6
:1019DC00103051018D008F01910105309300900161
:1019EC009201101CFA2CFB2CF72C08004E018C12C7
:1019FC0040012A082B040319042D052D0A2D2B0850
:101A0C008A002A080A008D3108004001D0001030ED
:101A1C0050020318122D132D192D5008B43E8600B8
:101A2C00870101081A2DFF300800F20072084101ED
:101A3C009F0042019117111311141118262D272DF7
:101A4C00232D41011E08F1001D08F0000800F100D3
:101A5C0010307C020318332D342D402D7108F0000A
:101A6C007C08B43E86008701700881000130F000CC
:101A7C007008FC0708004001D10010307C020318EC
:101A8C00482D492D552D5108D0007C08B43E8600B8
:101A9C008701500881000130D0005008FC07080075
:101AAC008C3151248D318C316F248D3187313B2712
:101ABC008D318C31EE248D318B31C6238D318E31AD
:101ACC0041268D318D316C258D3108004E304B0106
:101ADC009F0004309D009C014E018C129616D8304C
:101AEC004001D0000B30D1008C310E248D314B01D4
:101AFC009E014001AC01AD0108004001D2008C2DCB
:101B0C0094159C2D14169C2D94159C2D5208D000C8
:101B1C00D1015108003A0319942D8A2D5008003A2E
:101B2C000319862D013A0319882D8A2D08004001CE
:101B3C00D200A62D1A15B62D9A16B62D1A15B62D3D
:101B4C005208D000D1015108003A0319AE2DA42D32
:101B5C005008003A0319A02D013A0319A22DA42D07
:101B6C0008004001D30053088E31D5268D31400139
:101B7C00D401D5010130D4070030D53D01305502D8
:101B8C00133003195402031CCC2DCD2DC02D53083A
:101B9C008D3183258D3108004001D90059088D31D4
:101BAC009D258D31400159088D31B7258D3140016E
:101BBC00590886319E268D314001D7005708D80030
:101BCC0059088E317A268D31400158080800F200F0
:101BDC00F82D40019415082E40011416082E4001D2
:101BEC009415082E7208F000F1017108003A0319DF
:101BFC00002EF52D7008003A0319EF2D013A031948
:101C0C00F22DF52D0800F200142E40011A15242E89
:101C1C0040019A16242E40011A15242E7208F00049
:101C2C00F1017108003A03191C2E112E7008003AAC
:101C3C0003190B2E013A03190E2E112E0800400128
:101C4C00DC005C08D9005908D0005808DA00DB0128
:101C5C005A08D1005B08D200B4308731D2278E31BC
:101C6C0040015808D9005908FC000130D900590826
:101C7C00CC00CD01080041018C018D018E018F013A
:101C8C009201930198019A019F0142018C018D01EF
:101C9C008E018F0190019201930194019501033003
:101CAC00960097010F309800843091000800400195
:101CBC00D60056088E31D5268E318C31B9248E3112
:101CCC00400156088D3183258E31400156088F31E5
:101CDC0087278E314001D4005408D5008C31C6249E
:101CEC008E314001550808004001D200862E941513
:101CFC001A11962E14169A12962E94151A11962EB7
:101D0C005208D000D1015108003A03198E2E832EAF
:101D1C005008003A03197D2E013A0319802E832EA8
:101D2C000800F200A52E400194151A11B52E4001A1
:101D3C0014169A12B52E400194151A11B52E72086C
:101D4C00F000F1017108003A0319AD2EA12E7008B4
:101D5C00003A0319992E013A03199D2EA12E080061
:101D6C004001DF005F08DB00DC015B08D0005C0891
:101D7C00D1005A08DD00DE015D08D2005E08D300F8
:101D8C00B430853112258E3140015A08DB005B08D6
:101D9C00FC000130DB005B08CC00CD0108004001E9
:101DAC00D200E42E1A1594119A11F42E9A161412CC
:101DBC001A12F42E1A1594119A11F42E5208D000FE
:101DCC00D1015108003A0319EC2EE02E5008003ACC
:101DDC000319D82E013A0319DC2EE02E080040011D
:101DEC0094151416141194121A119A1200308D3184
:101DFC009D258E3101308D319D258E3100308D31F8
:101E0C0083258E3101308D3183258E3100308E311A
:101E1C007A268E3101308E317A268E31FD01080002
:101E2C00F4007408F3008C3147248F31283E86006F
:101E3C0087017308810074080319252F262F2D2F75
:101E4C008C3147248F318E3109268F31332F8C31D1
:101E5C0047248F318E3197268F318C3147248F3127
:101E6C008D31ED258F3108004001D40054088E319E
:101E7C00D5268F31400153080319452F462F4A2F81
:101E8C008C31B9248F314D2F8C31C6248F314001C8
:101E9C0054088D3183258F31400153080319572F76
:101EAC00582F5C2F8C31C6248F315F2F8C31B92485
:101EBC008F3108004001D4005408D0000330D036D4
:101ECC00890B652F5008D1005108D2000130D00089
:101EDC0054080739890A732FD035890B722F500893
:101EEC00D1005108D3005208C43E86008701010876
:101EFC005305031D822F832F852F0030862F013031
:101F0C0008004001D2009C2F1A1500308E190130A8
:101F1C00D300AC2F9A1600300E1A0130D300AC2F20
:101F2C001A1500308E190130D300AC2F5208D00096
:101F3C00D1015108003A0319A42F962F5008003AEA
:101F4C0003198A2F013A0319902F962F5308080072
:101F5C004001DA00D8015A088D319D258F3140019E
:101F6C00D9010310D80C5A088E315D268F31003AF6
:101F7C000319C12FC22FC42F4001D81701304001C3
:101F8C00D7005708D90708305902031CCE2FCF2F82
:101F9C00B72F5A088E317A268F3140015808080025
:101FAC004001D80058088D319D258F314001D70153
:101FBC005518E12FE22FE82FD30158088F313A271B
:101FCC008F31EE2FD301D30A58088F313A278F3136
:101FDC0003104001D50C0130D6005608D707083045
:101FEC005702031CFA2FFB2FDE2F58088E317A264E
:041FFC008F31080019
:020000040001F9
:0A000E009C3FFF3FDF3FFF3FFF3F35
:00000001FF
